{
  "contractName": "Voting",
  "abi": [
    {
      "anonymous": false,
      "inputs": [
        {
          "indexed": true,
          "internalType": "address",
          "name": "previousOwner",
          "type": "address"
        },
        {
          "indexed": true,
          "internalType": "address",
          "name": "newOwner",
          "type": "address"
        }
      ],
      "name": "OwnershipTransferred",
      "type": "event"
    },
    {
      "anonymous": false,
      "inputs": [
        {
          "indexed": false,
          "internalType": "uint256",
          "name": "proposalId",
          "type": "uint256"
        },
        {
          "indexed": false,
          "internalType": "string",
          "name": "description",
          "type": "string"
        }
      ],
      "name": "ProposalRegistered",
      "type": "event"
    },
    {
      "anonymous": false,
      "inputs": [
        {
          "indexed": false,
          "internalType": "address",
          "name": "voter",
          "type": "address"
        },
        {
          "indexed": false,
          "internalType": "uint256",
          "name": "proposalId",
          "type": "uint256"
        }
      ],
      "name": "Voted",
      "type": "event"
    },
    {
      "anonymous": false,
      "inputs": [
        {
          "indexed": false,
          "internalType": "address",
          "name": "voterAddress",
          "type": "address"
        }
      ],
      "name": "VoterRegistered",
      "type": "event"
    },
    {
      "anonymous": false,
      "inputs": [
        {
          "indexed": false,
          "internalType": "address",
          "name": "voterAddress",
          "type": "address"
        }
      ],
      "name": "VoterUnregistered",
      "type": "event"
    },
    {
      "anonymous": false,
      "inputs": [
        {
          "indexed": false,
          "internalType": "enum Voting.WorkflowStatus",
          "name": "previousStatus",
          "type": "uint8"
        },
        {
          "indexed": false,
          "internalType": "enum Voting.WorkflowStatus",
          "name": "newStatus",
          "type": "uint8"
        }
      ],
      "name": "WorkflowStatusChange",
      "type": "event"
    },
    {
      "inputs": [],
      "name": "owner",
      "outputs": [
        {
          "internalType": "address",
          "name": "",
          "type": "address"
        }
      ],
      "stateMutability": "view",
      "type": "function",
      "constant": true
    },
    {
      "inputs": [],
      "name": "renounceOwnership",
      "outputs": [],
      "stateMutability": "nonpayable",
      "type": "function"
    },
    {
      "inputs": [
        {
          "internalType": "address",
          "name": "newOwner",
          "type": "address"
        }
      ],
      "name": "transferOwnership",
      "outputs": [],
      "stateMutability": "nonpayable",
      "type": "function"
    },
    {
      "inputs": [],
      "name": "winningProposalID",
      "outputs": [
        {
          "internalType": "uint256",
          "name": "",
          "type": "uint256"
        }
      ],
      "stateMutability": "view",
      "type": "function",
      "constant": true
    },
    {
      "inputs": [],
      "name": "workflowStatus",
      "outputs": [
        {
          "internalType": "enum Voting.WorkflowStatus",
          "name": "",
          "type": "uint8"
        }
      ],
      "stateMutability": "view",
      "type": "function",
      "constant": true
    },
    {
      "inputs": [
        {
          "internalType": "address",
          "name": "_addr",
          "type": "address"
        }
      ],
      "name": "getVoter",
      "outputs": [
        {
          "components": [
            {
              "internalType": "bool",
              "name": "isRegistered",
              "type": "bool"
            },
            {
              "internalType": "bool",
              "name": "hasVoted",
              "type": "bool"
            },
            {
              "internalType": "uint256",
              "name": "votedProposalId",
              "type": "uint256"
            }
          ],
          "internalType": "struct Voting.Voter",
          "name": "",
          "type": "tuple"
        }
      ],
      "stateMutability": "view",
      "type": "function",
      "constant": true
    },
    {
      "inputs": [
        {
          "internalType": "uint256",
          "name": "_id",
          "type": "uint256"
        }
      ],
      "name": "getOneProposal",
      "outputs": [
        {
          "components": [
            {
              "internalType": "string",
              "name": "description",
              "type": "string"
            },
            {
              "internalType": "uint256",
              "name": "voteCount",
              "type": "uint256"
            }
          ],
          "internalType": "struct Voting.Proposal",
          "name": "",
          "type": "tuple"
        }
      ],
      "stateMutability": "view",
      "type": "function",
      "constant": true
    },
    {
      "inputs": [
        {
          "internalType": "address",
          "name": "_addr",
          "type": "address"
        }
      ],
      "name": "addVoter",
      "outputs": [],
      "stateMutability": "nonpayable",
      "type": "function"
    },
    {
      "inputs": [
        {
          "internalType": "address",
          "name": "_addr",
          "type": "address"
        }
      ],
      "name": "deleteVoter",
      "outputs": [],
      "stateMutability": "nonpayable",
      "type": "function"
    },
    {
      "inputs": [
        {
          "internalType": "string",
          "name": "_desc",
          "type": "string"
        }
      ],
      "name": "addProposal",
      "outputs": [],
      "stateMutability": "nonpayable",
      "type": "function"
    },
    {
      "inputs": [
        {
          "internalType": "uint256",
          "name": "_id",
          "type": "uint256"
        }
      ],
      "name": "setVote",
      "outputs": [],
      "stateMutability": "nonpayable",
      "type": "function"
    },
    {
      "inputs": [],
      "name": "startProposalsRegistering",
      "outputs": [],
      "stateMutability": "nonpayable",
      "type": "function"
    },
    {
      "inputs": [],
      "name": "endProposalsRegistering",
      "outputs": [],
      "stateMutability": "nonpayable",
      "type": "function"
    },
    {
      "inputs": [],
      "name": "startVotingSession",
      "outputs": [],
      "stateMutability": "nonpayable",
      "type": "function"
    },
    {
      "inputs": [],
      "name": "endVotingSession",
      "outputs": [],
      "stateMutability": "nonpayable",
      "type": "function"
    },
    {
      "inputs": [],
      "name": "tallyVotes",
      "outputs": [],
      "stateMutability": "nonpayable",
      "type": "function"
    }
  ],
  "bytecode": "0x60806040523480156200001157600080fd5b5062000032620000266200003860201b60201c565b6200004060201b60201c565b62000104565b600033905090565b60008060009054906101000a900473ffffffffffffffffffffffffffffffffffffffff169050816000806101000a81548173ffffffffffffffffffffffffffffffffffffffff021916908373ffffffffffffffffffffffffffffffffffffffff1602179055508173ffffffffffffffffffffffffffffffffffffffff168173ffffffffffffffffffffffffffffffffffffffff167f8be0079c531659141344cd1fd0a4f28419497f9722a3daafe3b4186f6b6457e060405160405180910390a35050565b61293080620001146000396000f3fe608060405234801561001057600080fd5b50600436106101005760003560e01c8063a7bfab1611610097578063d4f50f9811610066578063d4f50f9814610215578063ee74c67814610245578063f2fde38b1461024f578063f4ab9adf1461026b57610100565b8063a7bfab16146101d9578063bdc01431146101e3578063c7038a4e14610201578063c88af42f1461020b57610100565b806388e1c739116100d357806388e1c739146101515780638da5cb5b1461016d578063a1edffa21461018b578063a2788cce146101a957610100565b8063230796ae146101055780632fdae3c514610121578063378a21781461013d578063715018a614610147575b600080fd5b61011f600480360381019061011a91906119db565b610287565b005b61013b60048036038101906101369190611b4e565b610583565b005b610145610811565b005b61014f6109f2565b005b61016b60048036038101906101669190611bf5565b610a7a565b005b610175610c97565b6040516101829190611c31565b60405180910390f35b610193610cc0565b6040516101a09190611cc3565b60405180910390f35b6101c360048036038101906101be91906119db565b610cd3565b6040516101d09190611db2565b60405180910390f35b6101e1610e3a565b005b6101eb610f94565b6040516101f89190611de3565b60405180910390f35b610209610f9a565b005b6102136110f4565b005b61022f600480360381019061022a9190611bf5565b61124d565b60405161023c9190611e5b565b60405180910390f35b61024d611375565b005b61026960048036038101906102649190611bf5565b6114cf565b005b61028560048036038101906102809190611bf5565b6115c6565b005b600460003373ffffffffffffffffffffffffffffffffffffffff1673ffffffffffffffffffffffffffffffffffffffff16815260200190815260200160002060000160009054906101000a900460ff16610316576040517f08c379a000000000000000000000000000000000000000000000000000000000815260040161030d90611ed3565b60405180910390fd5b6003600581111561032a57610329611c4c565b5b600260009054906101000a900460ff16600581111561034c5761034b611c4c565b5b1461038c576040517f08c379a000000000000000000000000000000000000000000000000000000000815260040161038390611f65565b60405180910390fd5b60011515600460003373ffffffffffffffffffffffffffffffffffffffff1673ffffffffffffffffffffffffffffffffffffffff16815260200190815260200160002060000160019054906101000a900460ff16151503610422576040517f08c379a000000000000000000000000000000000000000000000000000000000815260040161041990611fd1565b60405180910390fd5b60038054905081111561046a576040517f08c379a00000000000000000000000000000000000000000000000000000000081526004016104619061203d565b60405180910390fd5b80600460003373ffffffffffffffffffffffffffffffffffffffff1673ffffffffffffffffffffffffffffffffffffffff168152602001908152602001600020600101819055506001600460003373ffffffffffffffffffffffffffffffffffffffff1673ffffffffffffffffffffffffffffffffffffffff16815260200190815260200160002060000160016101000a81548160ff021916908315150217905550600381815481106105205761051f61205d565b5b90600052602060002090600202016001016000815480929190610542906120bb565b91905055507f4d99b957a2bc29a30ebd96a7be8e68fe50a3c701db28a91436490b7d53870ca43382604051610578929190612103565b60405180910390a150565b600460003373ffffffffffffffffffffffffffffffffffffffff1673ffffffffffffffffffffffffffffffffffffffff16815260200190815260200160002060000160009054906101000a900460ff16610612576040517f08c379a000000000000000000000000000000000000000000000000000000000815260040161060990611ed3565b60405180910390fd5b6001600581111561062657610625611c4c565b5b600260009054906101000a900460ff16600581111561064857610647611c4c565b5b14610688576040517f08c379a000000000000000000000000000000000000000000000000000000000815260040161067f90612178565b60405180910390fd5b604051602001610697906121be565b60405160208183030381529060405280519060200120816040516020016106be9190612217565b6040516020818303038152906040528051906020012003610714576040517f08c379a000000000000000000000000000000000000000000000000000000000815260040161070b906122ab565b60405180910390fd5b6032600380549050111561075d576040517f08c379a00000000000000000000000000000000000000000000000000000000081526004016107549061233d565b60405180910390fd5b6107656118af565b818160000181905250600381908060018154018082558091505060019003906000526020600020906002020160009091909190915060008201518160000190805190602001906107b69291906118c9565b506020820151816001015550507f7c33c4b6ed18ab3f65fdeb25d41356291f7ec877c0db0af1a821ad5c444b4aeb60016003805490506107f6919061235d565b83604051610805929190612391565b60405180910390a15050565b6108196117e3565b73ffffffffffffffffffffffffffffffffffffffff16610837610c97565b73ffffffffffffffffffffffffffffffffffffffff161461088d576040517f08c379a00000000000000000000000000000000000000000000000000000000081526004016108849061240d565b60405180910390fd5b600460058111156108a1576108a0611c4c565b5b600260009054906101000a900460ff1660058111156108c3576108c2611c4c565b5b14610903576040517f08c379a00000000000000000000000000000000000000000000000000000000081526004016108fa9061249f565b60405180910390fd5b600080600090505b600380549050811015610981576003828154811061092c5761092b61205d565b5b906000526020600020906002020160010154600382815481106109525761095161205d565b5b906000526020600020906002020160010154111561096e578091505b8080610979906120bb565b91505061090b565b50806001819055506005600260006101000a81548160ff021916908360058111156109af576109ae611c4c565b5b02179055507f0a97a4ee45751e2abf3e4fc8946939630b11b371ea8ae39ccdc3056e98f5cc3f600460056040516109e79291906124bf565b60405180910390a150565b6109fa6117e3565b73ffffffffffffffffffffffffffffffffffffffff16610a18610c97565b73ffffffffffffffffffffffffffffffffffffffff1614610a6e576040517f08c379a0000000000000000000000000000000000000000000000000000000008152600401610a659061240d565b60405180910390fd5b610a7860006117eb565b565b610a826117e3565b73ffffffffffffffffffffffffffffffffffffffff16610aa0610c97565b73ffffffffffffffffffffffffffffffffffffffff1614610af6576040517f08c379a0000000000000000000000000000000000000000000000000000000008152600401610aed9061240d565b60405180910390fd5b60006005811115610b0a57610b09611c4c565b5b600260009054906101000a900460ff166005811115610b2c57610b2b611c4c565b5b14610b6c576040517f08c379a0000000000000000000000000000000000000000000000000000000008152600401610b639061255a565b60405180910390fd5b60011515600460008373ffffffffffffffffffffffffffffffffffffffff1673ffffffffffffffffffffffffffffffffffffffff16815260200190815260200160002060000160009054906101000a900460ff16151514610c02576040517f08c379a0000000000000000000000000000000000000000000000000000000008152600401610bf9906125c6565b60405180910390fd5b6000600460008373ffffffffffffffffffffffffffffffffffffffff1673ffffffffffffffffffffffffffffffffffffffff16815260200190815260200160002060000160006101000a81548160ff0219169083151502179055507f25fc2460244a2fff1d6879302ea1d6f3e684e599d76c012a22e42d5bb61cc5d781604051610c8c9190611c31565b60405180910390a150565b60008060009054906101000a900473ffffffffffffffffffffffffffffffffffffffff16905090565b600260009054906101000a900460ff1681565b610cdb6118af565b600460003373ffffffffffffffffffffffffffffffffffffffff1673ffffffffffffffffffffffffffffffffffffffff16815260200190815260200160002060000160009054906101000a900460ff16610d6a576040517f08c379a0000000000000000000000000000000000000000000000000000000008152600401610d6190611ed3565b60405180910390fd5b60038281548110610d7e57610d7d61205d565b5b9060005260206000209060020201604051806040016040529081600082018054610da790612615565b80601f0160208091040260200160405190810160405280929190818152602001828054610dd390612615565b8015610e205780601f10610df557610100808354040283529160200191610e20565b820191906000526020600020905b815481529060010190602001808311610e0357829003601f168201915b505050505081526020016001820154815250509050919050565b610e426117e3565b73ffffffffffffffffffffffffffffffffffffffff16610e60610c97565b73ffffffffffffffffffffffffffffffffffffffff1614610eb6576040517f08c379a0000000000000000000000000000000000000000000000000000000008152600401610ead9061240d565b60405180910390fd5b60036005811115610eca57610ec9611c4c565b5b600260009054906101000a900460ff166005811115610eec57610eeb611c4c565b5b14610f2c576040517f08c379a0000000000000000000000000000000000000000000000000000000008152600401610f2390611f65565b60405180910390fd5b6004600260006101000a81548160ff02191690836005811115610f5257610f51611c4c565b5b02179055507f0a97a4ee45751e2abf3e4fc8946939630b11b371ea8ae39ccdc3056e98f5cc3f60036004604051610f8a9291906124bf565b60405180910390a1565b60015481565b610fa26117e3565b73ffffffffffffffffffffffffffffffffffffffff16610fc0610c97565b73ffffffffffffffffffffffffffffffffffffffff1614611016576040517f08c379a000000000000000000000000000000000000000000000000000000000815260040161100d9061240d565b60405180910390fd5b6000600581111561102a57611029611c4c565b5b600260009054906101000a900460ff16600581111561104c5761104b611c4c565b5b1461108c576040517f08c379a0000000000000000000000000000000000000000000000000000000008152600401611083906126b8565b60405180910390fd5b6001600260006101000a81548160ff021916908360058111156110b2576110b1611c4c565b5b02179055507f0a97a4ee45751e2abf3e4fc8946939630b11b371ea8ae39ccdc3056e98f5cc3f600060016040516110ea9291906124bf565b60405180910390a1565b6110fc6117e3565b73ffffffffffffffffffffffffffffffffffffffff1661111a610c97565b73ffffffffffffffffffffffffffffffffffffffff1614611170576040517f08c379a00000000000000000000000000000000000000000000000000000000081526004016111679061240d565b60405180910390fd5b6001600581111561118457611183611c4c565b5b600260009054906101000a900460ff1660058111156111a6576111a5611c4c565b5b146111e6576040517f08c379a00000000000000000000000000000000000000000000000000000000081526004016111dd9061274a565b60405180910390fd5b60028060006101000a81548160ff0219169083600581111561120b5761120a611c4c565b5b02179055507f0a97a4ee45751e2abf3e4fc8946939630b11b371ea8ae39ccdc3056e98f5cc3f600160026040516112439291906124bf565b60405180910390a1565b61125561194f565b600460003373ffffffffffffffffffffffffffffffffffffffff1673ffffffffffffffffffffffffffffffffffffffff16815260200190815260200160002060000160009054906101000a900460ff166112e4576040517f08c379a00000000000000000000000000000000000000000000000000000000081526004016112db90611ed3565b60405180910390fd5b600460008373ffffffffffffffffffffffffffffffffffffffff1673ffffffffffffffffffffffffffffffffffffffff1681526020019081526020016000206040518060600160405290816000820160009054906101000a900460ff161515151581526020016000820160019054906101000a900460ff161515151581526020016001820154815250509050919050565b61137d6117e3565b73ffffffffffffffffffffffffffffffffffffffff1661139b610c97565b73ffffffffffffffffffffffffffffffffffffffff16146113f1576040517f08c379a00000000000000000000000000000000000000000000000000000000081526004016113e89061240d565b60405180910390fd5b6002600581111561140557611404611c4c565b5b600260009054906101000a900460ff16600581111561142757611426611c4c565b5b14611467576040517f08c379a000000000000000000000000000000000000000000000000000000000815260040161145e906127dc565b60405180910390fd5b6003600260006101000a81548160ff0219169083600581111561148d5761148c611c4c565b5b02179055507f0a97a4ee45751e2abf3e4fc8946939630b11b371ea8ae39ccdc3056e98f5cc3f600260036040516114c59291906124bf565b60405180910390a1565b6114d76117e3565b73ffffffffffffffffffffffffffffffffffffffff166114f5610c97565b73ffffffffffffffffffffffffffffffffffffffff161461154b576040517f08c379a00000000000000000000000000000000000000000000000000000000081526004016115429061240d565b60405180910390fd5b600073ffffffffffffffffffffffffffffffffffffffff168173ffffffffffffffffffffffffffffffffffffffff16036115ba576040517f08c379a00000000000000000000000000000000000000000000000000000000081526004016115b19061286e565b60405180910390fd5b6115c3816117eb565b50565b6115ce6117e3565b73ffffffffffffffffffffffffffffffffffffffff166115ec610c97565b73ffffffffffffffffffffffffffffffffffffffff1614611642576040517f08c379a00000000000000000000000000000000000000000000000000000000081526004016116399061240d565b60405180910390fd5b6000600581111561165657611655611c4c565b5b600260009054906101000a900460ff16600581111561167857611677611c4c565b5b146116b8576040517f08c379a00000000000000000000000000000000000000000000000000000000081526004016116af9061255a565b60405180910390fd5b60011515600460008373ffffffffffffffffffffffffffffffffffffffff1673ffffffffffffffffffffffffffffffffffffffff16815260200190815260200160002060000160009054906101000a900460ff1615150361174e576040517f08c379a0000000000000000000000000000000000000000000000000000000008152600401611745906128da565b60405180910390fd5b6001600460008373ffffffffffffffffffffffffffffffffffffffff1673ffffffffffffffffffffffffffffffffffffffff16815260200190815260200160002060000160006101000a81548160ff0219169083151502179055507fb6be2187d059cc2a55fe29e0e503b566e1e0f8c8780096e185429350acffd3dd816040516117d89190611c31565b60405180910390a150565b600033905090565b60008060009054906101000a900473ffffffffffffffffffffffffffffffffffffffff169050816000806101000a81548173ffffffffffffffffffffffffffffffffffffffff021916908373ffffffffffffffffffffffffffffffffffffffff1602179055508173ffffffffffffffffffffffffffffffffffffffff168173ffffffffffffffffffffffffffffffffffffffff167f8be0079c531659141344cd1fd0a4f28419497f9722a3daafe3b4186f6b6457e060405160405180910390a35050565b604051806040016040528060608152602001600081525090565b8280546118d590612615565b90600052602060002090601f0160209004810192826118f7576000855561193e565b82601f1061191057805160ff191683800117855561193e565b8280016001018555821561193e579182015b8281111561193d578251825591602001919060010190611922565b5b50905061194b9190611974565b5090565b6040518060600160405280600015158152602001600015158152602001600081525090565b5b8082111561198d576000816000905550600101611975565b5090565b6000604051905090565b600080fd5b600080fd5b6000819050919050565b6119b8816119a5565b81146119c357600080fd5b50565b6000813590506119d5816119af565b92915050565b6000602082840312156119f1576119f061199b565b5b60006119ff848285016119c6565b91505092915050565b600080fd5b600080fd5b6000601f19601f8301169050919050565b7f4e487b7100000000000000000000000000000000000000000000000000000000600052604160045260246000fd5b611a5b82611a12565b810181811067ffffffffffffffff82111715611a7a57611a79611a23565b5b80604052505050565b6000611a8d611991565b9050611a998282611a52565b919050565b600067ffffffffffffffff821115611ab957611ab8611a23565b5b611ac282611a12565b9050602081019050919050565b82818337600083830152505050565b6000611af1611aec84611a9e565b611a83565b905082815260208101848484011115611b0d57611b0c611a0d565b5b611b18848285611acf565b509392505050565b600082601f830112611b3557611b34611a08565b5b8135611b45848260208601611ade565b91505092915050565b600060208284031215611b6457611b6361199b565b5b600082013567ffffffffffffffff811115611b8257611b816119a0565b5b611b8e84828501611b20565b91505092915050565b600073ffffffffffffffffffffffffffffffffffffffff82169050919050565b6000611bc282611b97565b9050919050565b611bd281611bb7565b8114611bdd57600080fd5b50565b600081359050611bef81611bc9565b92915050565b600060208284031215611c0b57611c0a61199b565b5b6000611c1984828501611be0565b91505092915050565b611c2b81611bb7565b82525050565b6000602082019050611c466000830184611c22565b92915050565b7f4e487b7100000000000000000000000000000000000000000000000000000000600052602160045260246000fd5b60068110611c8c57611c8b611c4c565b5b50565b6000819050611c9d82611c7b565b919050565b6000611cad82611c8f565b9050919050565b611cbd81611ca2565b82525050565b6000602082019050611cd86000830184611cb4565b92915050565b600081519050919050565b600082825260208201905092915050565b60005b83811015611d18578082015181840152602081019050611cfd565b83811115611d27576000848401525b50505050565b6000611d3882611cde565b611d428185611ce9565b9350611d52818560208601611cfa565b611d5b81611a12565b840191505092915050565b611d6f816119a5565b82525050565b60006040830160008301518482036000860152611d928282611d2d565b9150506020830151611da76020860182611d66565b508091505092915050565b60006020820190508181036000830152611dcc8184611d75565b905092915050565b611ddd816119a5565b82525050565b6000602082019050611df86000830184611dd4565b92915050565b60008115159050919050565b611e1381611dfe565b82525050565b606082016000820151611e2f6000850182611e0a565b506020820151611e426020850182611e0a565b506040820151611e556040850182611d66565b50505050565b6000606082019050611e706000830184611e19565b92915050565b600082825260208201905092915050565b7f596f75277265206e6f74206120766f7465720000000000000000000000000000600082015250565b6000611ebd601283611e76565b9150611ec882611e87565b602082019050919050565b60006020820190508181036000830152611eec81611eb0565b9050919050565b7f566f74696e672073657373696f6e20686176656e74207374617274656420796560008201527f7400000000000000000000000000000000000000000000000000000000000000602082015250565b6000611f4f602183611e76565b9150611f5a82611ef3565b604082019050919050565b60006020820190508181036000830152611f7e81611f42565b9050919050565b7f596f75206861766520616c726561647920766f74656400000000000000000000600082015250565b6000611fbb601683611e76565b9150611fc682611f85565b602082019050919050565b60006020820190508181036000830152611fea81611fae565b9050919050565b7f50726f706f73616c206e6f7420666f756e640000000000000000000000000000600082015250565b6000612027601283611e76565b915061203282611ff1565b602082019050919050565b600060208201905081810360008301526120568161201a565b9050919050565b7f4e487b7100000000000000000000000000000000000000000000000000000000600052603260045260246000fd5b7f4e487b7100000000000000000000000000000000000000000000000000000000600052601160045260246000fd5b60006120c6826119a5565b91507fffffffffffffffffffffffffffffffffffffffffffffffffffffffffffffffff82036120f8576120f761208c565b5b600182019050919050565b60006040820190506121186000830185611c22565b6121256020830184611dd4565b9392505050565b7f50726f706f73616c7320617265206e6f7420616c6c6f77656420796574000000600082015250565b6000612162601d83611e76565b915061216d8261212c565b602082019050919050565b6000602082019050818103600083015261219181612155565b9050919050565b50565b60006121a8600083611e76565b91506121b382612198565b600082019050919050565b600060208201905081810360008301526121d78161219b565b9050919050565b60006121e982611cde565b6121f38185611e76565b9350612203818560208601611cfa565b61220c81611a12565b840191505092915050565b6000602082019050818103600083015261223181846121de565b905092915050565b7f566f7573206e6520706f7576657a20706173206e65207269656e2070726f706f60008201527f7365720000000000000000000000000000000000000000000000000000000000602082015250565b6000612295602383611e76565b91506122a082612239565b604082019050919050565b600060208201905081810360008301526122c481612288565b9050919050565b7f4d61782070726f706f73616c7320616d6f756e7420726561636865642028353060008201527f2900000000000000000000000000000000000000000000000000000000000000602082015250565b6000612327602183611e76565b9150612332826122cb565b604082019050919050565b600060208201905081810360008301526123568161231a565b9050919050565b6000612368826119a5565b9150612373836119a5565b9250828210156123865761238561208c565b5b828203905092915050565b60006040820190506123a66000830185611dd4565b81810360208301526123b881846121de565b90509392505050565b7f4f776e61626c653a2063616c6c6572206973206e6f7420746865206f776e6572600082015250565b60006123f7602083611e76565b9150612402826123c1565b602082019050919050565b60006020820190508181036000830152612426816123ea565b9050919050565b7f43757272656e7420737461747573206973206e6f7420766f74696e672073657360008201527f73696f6e20656e64656400000000000000000000000000000000000000000000602082015250565b6000612489602a83611e76565b91506124948261242d565b604082019050919050565b600060208201905081810360008301526124b88161247c565b9050919050565b60006040820190506124d46000830185611cb4565b6124e16020830184611cb4565b9392505050565b7f566f7465727320726567697374726174696f6e206973206e6f74206f70656e2060008201527f7965740000000000000000000000000000000000000000000000000000000000602082015250565b6000612544602383611e76565b915061254f826124e8565b604082019050919050565b6000602082019050818103600083015261257381612537565b9050919050565b7f4e6f7420726567697374657265642e0000000000000000000000000000000000600082015250565b60006125b0600f83611e76565b91506125bb8261257a565b602082019050919050565b600060208201905081810360008301526125df816125a3565b9050919050565b7f4e487b7100000000000000000000000000000000000000000000000000000000600052602260045260246000fd5b6000600282049050600182168061262d57607f821691505b6020821081036126405761263f6125e6565b5b50919050565b7f5265676973746572696e672070726f706f73616c732063616e7420626520737460008201527f6172746564206e6f770000000000000000000000000000000000000000000000602082015250565b60006126a2602983611e76565b91506126ad82612646565b604082019050919050565b600060208201905081810360008301526126d181612695565b9050919050565b7f5265676973746572696e672070726f706f73616c7320686176656e742073746160008201527f7274656420796574000000000000000000000000000000000000000000000000602082015250565b6000612734602883611e76565b915061273f826126d8565b604082019050919050565b6000602082019050818103600083015261276381612727565b9050919050565b7f5265676973746572696e672070726f706f73616c73207068617365206973206e60008201527f6f742066696e6973686564000000000000000000000000000000000000000000602082015250565b60006127c6602b83611e76565b91506127d18261276a565b604082019050919050565b600060208201905081810360008301526127f5816127b9565b9050919050565b7f4f776e61626c653a206e6577206f776e657220697320746865207a65726f206160008201527f6464726573730000000000000000000000000000000000000000000000000000602082015250565b6000612858602683611e76565b9150612863826127fc565b604082019050919050565b600060208201905081810360008301526128878161284b565b9050919050565b7f416c726561647920726567697374657265640000000000000000000000000000600082015250565b60006128c4601283611e76565b91506128cf8261288e565b602082019050919050565b600060208201905081810360008301526128f3816128b7565b905091905056fea2646970667358221220efdd4727085756de9b2daba0114484d026939672a2f9a75f4ba9dcc233b90b5164736f6c634300080d0033",
  "immutableReferences": {},
  "source": "// SPDX-License-Identifier: MIT\n\npragma solidity 0.8.13;\nimport \"@openzeppelin/contracts/access/Ownable.sol\";\n\n/**\n * @title Voting System \n * @author Alexandre EL-KHOURY\n */\n\ncontract Voting is Ownable {\n    \n    uint public winningProposalID;\n    \n    struct Voter {\n        bool isRegistered;\n        bool hasVoted;\n        uint votedProposalId;\n    }\n\n    struct Proposal {\n        string description;\n        uint voteCount;\n    }\n\n    enum  WorkflowStatus {\n        RegisteringVoters,\n        ProposalsRegistrationStarted,\n        ProposalsRegistrationEnded,\n        VotingSessionStarted,\n        VotingSessionEnded,\n        VotesTallied\n    }\n\n    WorkflowStatus public workflowStatus;\n    Proposal[] proposalsArray;\n    mapping (address => Voter) voters;\n\n\n    event VoterRegistered(address voterAddress); \n    event WorkflowStatusChange(WorkflowStatus previousStatus, WorkflowStatus newStatus);\n    event ProposalRegistered(uint proposalId, string description);\n    event Voted (address voter, uint proposalId);\n    event VoterUnregistered(address voterAddress); \n\n    modifier onlyVoters() {\n        require(voters[msg.sender].isRegistered, \"You're not a voter\");\n        _;\n    }\n\n    // ::::::::::::: GETTERS ::::::::::::: //\n\n    /** \n     * @notice Can be called only by registered voters.\n     * @param _addr The address of the voter\n     * @return Voter (bool: isRegistered, bool: hasVoted, uint: votedProposalId)\n     */\n\n    function getVoter(address _addr) external onlyVoters view returns (Voter memory) {\n        return voters[_addr];\n    }\n\n     /**\n     * @notice Can be called only by registered voters.\n     * @param _id The id of the proposal\n     * @return returns the proposal (string: description, uint256: voteCount)\n     */\n    \n    function getOneProposal(uint _id) external onlyVoters view returns (Proposal memory) {\n        return proposalsArray[_id];\n    }\n\n \n    // ::::::::::::: REGISTRATION ::::::::::::: // \n\n    /**\n     * @notice Can be called only by the owner.\n     * It adds a voter to the \"whitelist\".\n     * @param _addr The address of the voter to add\n     * Emits the event : VoterRegistered (address: voterAddress)\n     */\n\n    function addVoter(address _addr) external onlyOwner {\n        require(workflowStatus == WorkflowStatus.RegisteringVoters, 'Voters registration is not open yet');\n        require(voters[_addr].isRegistered != true, 'Already registered');\n    \n        voters[_addr].isRegistered = true;\n        emit VoterRegistered(_addr);\n    }\n \n    /** \n     * @notice Can be called only by the owner.\n     * It removes a voter from the whitelist.\n     * @param _addr The address of the voter\n     * Emits VoterRegistered (address: voterAddress) event.\n     */\n\n    function deleteVoter(address _addr) external onlyOwner {\n        require(workflowStatus == WorkflowStatus.RegisteringVoters, 'Voters registration is not open yet');\n        require(voters[_addr].isRegistered == true, 'Not registered.');\n        voters[_addr].isRegistered = false;\n        emit VoterUnregistered(_addr);\n    }\n\n    // ::::::::::::: PROPOSAL ::::::::::::: // \n\n    /**\n     * @notice Can be called only by the voters.\n     * Add a proposal. (max 50 proposals)\n     * @param _desc The description of the proposal\n     * Emits the event : ProposalRegistered (uint256 proposalId)\n     */\n\n    function addProposal(string memory _desc) external onlyVoters {\n        require(workflowStatus == WorkflowStatus.ProposalsRegistrationStarted, 'Proposals are not allowed yet');\n        require(keccak256(abi.encode(_desc)) != keccak256(abi.encode(\"\")), 'Vous ne pouvez pas ne rien proposer'); // facultatif\n        require(proposalsArray.length <= 50, 'Max proposals amount reached (50)');\n\n        Proposal memory proposal;\n        proposal.description = _desc;\n        proposalsArray.push(proposal);\n        emit ProposalRegistered(proposalsArray.length-1, _desc);\n    }\n\n    // ::::::::::::: VOTE ::::::::::::: //\n\n    /**\n     * @notice Can be called only by voters.\n     * Voters can vote once.\n     * @param _id the id of the proposal.\n     * Emits the event : Voted (address voter, uint proposalId)\n     */\n\n    function setVote(uint _id) external onlyVoters {\n        require(workflowStatus == WorkflowStatus.VotingSessionStarted, 'Voting session havent started yet');\n        require(voters[msg.sender].hasVoted != true, 'You have already voted');\n        require(_id <= proposalsArray.length, 'Proposal not found'); // pas oblig, et pas besoin du >0 car uint\n\n        voters[msg.sender].votedProposalId = _id;\n        voters[msg.sender].hasVoted = true;\n        proposalsArray[_id].voteCount++;\n\n        emit Voted(msg.sender, _id);\n    }\n\n    // ::::::::::::: STATE ::::::::::::: //\n\n    /**\n     * @notice All state functions can be called only by the owner.\n     * All Emits the event : WorkflowStatusChange(WorkflowStatus previousStatus, WorkflowStatus newStatus) event.\n     */\n\n    function startProposalsRegistering() external onlyOwner {\n        require(workflowStatus == WorkflowStatus.RegisteringVoters, 'Registering proposals cant be started now');\n        workflowStatus = WorkflowStatus.ProposalsRegistrationStarted;\n        emit WorkflowStatusChange(WorkflowStatus.RegisteringVoters, WorkflowStatus.ProposalsRegistrationStarted);\n    }\n\n    function endProposalsRegistering() external onlyOwner {\n        require(workflowStatus == WorkflowStatus.ProposalsRegistrationStarted, 'Registering proposals havent started yet');\n        workflowStatus = WorkflowStatus.ProposalsRegistrationEnded;\n        emit WorkflowStatusChange(WorkflowStatus.ProposalsRegistrationStarted, WorkflowStatus.ProposalsRegistrationEnded);\n    }\n\n    function startVotingSession() external onlyOwner {\n        require(workflowStatus == WorkflowStatus.ProposalsRegistrationEnded, 'Registering proposals phase is not finished');\n        workflowStatus = WorkflowStatus.VotingSessionStarted;\n        emit WorkflowStatusChange(WorkflowStatus.ProposalsRegistrationEnded, WorkflowStatus.VotingSessionStarted);\n    }\n\n    function endVotingSession() external onlyOwner {\n        require(workflowStatus == WorkflowStatus.VotingSessionStarted, 'Voting session havent started yet');\n        workflowStatus = WorkflowStatus.VotingSessionEnded;\n        emit WorkflowStatusChange(WorkflowStatus.VotingSessionStarted, WorkflowStatus.VotingSessionEnded);\n    }\n\n    /**\n     * @notice Can be called only by the owner.\n     * Gets the winning proposal ID\n     * Emits the event WorkflowStatusChange(WorkflowStatus previousStatus, WorkflowStatus newStatus) event.\n     */\n\n   function tallyVotes() external onlyOwner {\n       require(workflowStatus == WorkflowStatus.VotingSessionEnded, \"Current status is not voting session ended\");\n       uint _winningProposalId;\n      for (uint256 p = 0; p < proposalsArray.length; p++) {\n           if (proposalsArray[p].voteCount > proposalsArray[_winningProposalId].voteCount) {\n               _winningProposalId = p;\n          }\n       }\n       winningProposalID = _winningProposalId;\n       \n       workflowStatus = WorkflowStatus.VotesTallied;\n       emit WorkflowStatusChange(WorkflowStatus.VotingSessionEnded, WorkflowStatus.VotesTallied);\n    }\n}",
  "sourcePath": "/root/Dev_BC/VotingSystem/contracts/Voting.sol",
  "compiler": {
    "name": "solc",
    "version": "0.8.13+commit.abaa5c0e.Emscripten.clang"
  },
  "schemaVersion": "3.4.6",
  "updatedAt": "2022-04-26T12:47:31.532Z",
  "networkType": "ethereum",
  "devdoc": {
    "author": "Alexandre EL-KHOURY",
    "kind": "dev",
    "methods": {
      "addProposal(string)": {
        "params": {
          "_desc": "The description of the proposal Emits the event : ProposalRegistered (uint256 proposalId)"
        }
      },
      "addVoter(address)": {
        "params": {
          "_addr": "The address of the voter to add Emits the event : VoterRegistered (address: voterAddress)"
        }
      },
      "deleteVoter(address)": {
        "params": {
          "_addr": "The address of the voter Emits VoterRegistered (address: voterAddress) event."
        }
      },
      "getOneProposal(uint256)": {
        "params": {
          "_id": "The id of the proposal"
        },
        "returns": {
          "_0": "returns the proposal (string: description, uint256: voteCount)"
        }
      },
      "getVoter(address)": {
        "params": {
          "_addr": "The address of the voter"
        },
        "returns": {
          "_0": "Voter (bool: isRegistered, bool: hasVoted, uint: votedProposalId)"
        }
      },
      "owner()": {
        "details": "Returns the address of the current owner."
      },
      "renounceOwnership()": {
        "details": "Leaves the contract without owner. It will not be possible to call `onlyOwner` functions anymore. Can only be called by the current owner. NOTE: Renouncing ownership will leave the contract without an owner, thereby removing any functionality that is only available to the owner."
      },
      "setVote(uint256)": {
        "params": {
          "_id": "the id of the proposal. Emits the event : Voted (address voter, uint proposalId)"
        }
      },
      "transferOwnership(address)": {
        "details": "Transfers ownership of the contract to a new account (`newOwner`). Can only be called by the current owner."
      }
    },
    "title": "Voting System ",
    "version": 1
  },
  "userdoc": {
    "kind": "user",
    "methods": {
      "addProposal(string)": {
        "notice": "Can be called only by the voters. Add a proposal. (max 50 proposals)"
      },
      "addVoter(address)": {
        "notice": "Can be called only by the owner. It adds a voter to the \"whitelist\"."
      },
      "deleteVoter(address)": {
        "notice": "Can be called only by the owner. It removes a voter from the whitelist."
      },
      "getOneProposal(uint256)": {
        "notice": "Can be called only by registered voters."
      },
      "getVoter(address)": {
        "notice": "Can be called only by registered voters."
      },
      "setVote(uint256)": {
        "notice": "Can be called only by voters. Voters can vote once."
      },
      "startProposalsRegistering()": {
        "notice": "All state functions can be called only by the owner. All Emits the event : WorkflowStatusChange(WorkflowStatus previousStatus, WorkflowStatus newStatus) event."
      },
      "tallyVotes()": {
        "notice": "Can be called only by the owner. Gets the winning proposal ID Emits the event WorkflowStatusChange(WorkflowStatus previousStatus, WorkflowStatus newStatus) event."
      }
    },
    "version": 1
  }
}